{
  "_format": "hh-sol-artifact-1",
  "contractName": "FlashLiquidation",
  "sourceName": "contracts/v2/FlashLiquidation.sol",
  "abi": [
    {
      "inputs": [
        {
          "internalType": "address",
          "name": "_addressProvider",
          "type": "address"
        },
        {
          "internalType": "contract ISwapRouter",
          "name": "_swapRouter",
          "type": "address"
        },
        {
          "internalType": "contract Comptroller",
          "name": "_comptroller",
          "type": "address"
        },
        {
          "internalType": "contract IUniswapV3Factory",
          "name": "_uniswapFactory",
          "type": "address"
        }
      ],
      "stateMutability": "nonpayable",
      "type": "constructor"
    },
    {
      "anonymous": false,
      "inputs": [
        {
          "indexed": true,
          "internalType": "address",
          "name": "_from",
          "type": "address"
        },
        {
          "indexed": true,
          "internalType": "address",
          "name": "_assetAddress",
          "type": "address"
        },
        {
          "indexed": false,
          "internalType": "uint256",
          "name": "amount",
          "type": "uint256"
        }
      ],
      "name": "LogWithdraw",
      "type": "event"
    },
    {
      "anonymous": false,
      "inputs": [
        {
          "indexed": true,
          "internalType": "address",
          "name": "previousOwner",
          "type": "address"
        },
        {
          "indexed": true,
          "internalType": "address",
          "name": "newOwner",
          "type": "address"
        }
      ],
      "name": "OwnershipTransferred",
      "type": "event"
    },
    {
      "inputs": [],
      "name": "AAVE_ETH",
      "outputs": [
        {
          "internalType": "address",
          "name": "",
          "type": "address"
        }
      ],
      "stateMutability": "view",
      "type": "function"
    },
    {
      "inputs": [],
      "name": "ADDRESSES_PROVIDER",
      "outputs": [
        {
          "internalType": "contract ILendingPoolAddressesProviderV2",
          "name": "",
          "type": "address"
        }
      ],
      "stateMutability": "view",
      "type": "function"
    },
    {
      "inputs": [],
      "name": "DAI",
      "outputs": [
        {
          "internalType": "address",
          "name": "",
          "type": "address"
        }
      ],
      "stateMutability": "view",
      "type": "function"
    },
    {
      "inputs": [],
      "name": "LENDING_POOL",
      "outputs": [
        {
          "internalType": "contract ILendingPoolV2",
          "name": "",
          "type": "address"
        }
      ],
      "stateMutability": "view",
      "type": "function"
    },
    {
      "inputs": [],
      "name": "USDC",
      "outputs": [
        {
          "internalType": "address",
          "name": "",
          "type": "address"
        }
      ],
      "stateMutability": "view",
      "type": "function"
    },
    {
      "inputs": [],
      "name": "USDT",
      "outputs": [
        {
          "internalType": "address",
          "name": "",
          "type": "address"
        }
      ],
      "stateMutability": "view",
      "type": "function"
    },
    {
      "inputs": [],
      "name": "WETH9",
      "outputs": [
        {
          "internalType": "address",
          "name": "",
          "type": "address"
        }
      ],
      "stateMutability": "view",
      "type": "function"
    },
    {
      "inputs": [],
      "name": "approveAmount",
      "outputs": [
        {
          "internalType": "uint256",
          "name": "",
          "type": "uint256"
        }
      ],
      "stateMutability": "view",
      "type": "function"
    },
    {
      "inputs": [],
      "name": "cETH",
      "outputs": [
        {
          "internalType": "address",
          "name": "",
          "type": "address"
        }
      ],
      "stateMutability": "view",
      "type": "function"
    },
    {
      "inputs": [],
      "name": "comptroller",
      "outputs": [
        {
          "internalType": "contract Comptroller",
          "name": "",
          "type": "address"
        }
      ],
      "stateMutability": "view",
      "type": "function"
    },
    {
      "inputs": [
        {
          "internalType": "address[]",
          "name": "assets",
          "type": "address[]"
        },
        {
          "internalType": "uint256[]",
          "name": "amounts",
          "type": "uint256[]"
        },
        {
          "internalType": "uint256[]",
          "name": "premiums",
          "type": "uint256[]"
        },
        {
          "internalType": "address",
          "name": "initiator",
          "type": "address"
        },
        {
          "internalType": "bytes",
          "name": "params",
          "type": "bytes"
        }
      ],
      "name": "executeOperation",
      "outputs": [
        {
          "internalType": "bool",
          "name": "",
          "type": "bool"
        }
      ],
      "stateMutability": "nonpayable",
      "type": "function"
    },
    {
      "inputs": [
        {
          "internalType": "address",
          "name": "_liquidationContractAddr",
          "type": "address"
        },
        {
          "internalType": "address",
          "name": "_debtAsset",
          "type": "address"
        },
        {
          "internalType": "address",
          "name": "_borrower",
          "type": "address"
        },
        {
          "internalType": "address",
          "name": "_collateralAsset",
          "type": "address"
        },
        {
          "internalType": "uint256",
          "name": "_debtAssetAmount",
          "type": "uint256"
        },
        {
          "internalType": "uint256",
          "name": "_flashloanWETHAmount",
          "type": "uint256"
        },
        {
          "internalType": "uint256",
          "name": "_market",
          "type": "uint256"
        }
      ],
      "name": "flashloanLiquidate",
      "outputs": [],
      "stateMutability": "nonpayable",
      "type": "function"
    },
    {
      "inputs": [],
      "name": "minerFee",
      "outputs": [
        {
          "internalType": "uint16",
          "name": "",
          "type": "uint16"
        }
      ],
      "stateMutability": "view",
      "type": "function"
    },
    {
      "inputs": [],
      "name": "owner",
      "outputs": [
        {
          "internalType": "address",
          "name": "",
          "type": "address"
        }
      ],
      "stateMutability": "view",
      "type": "function"
    },
    {
      "inputs": [],
      "name": "renounceOwnership",
      "outputs": [],
      "stateMutability": "nonpayable",
      "type": "function"
    },
    {
      "inputs": [
        {
          "internalType": "uint16",
          "name": "newFee",
          "type": "uint16"
        }
      ],
      "name": "setMinerFee",
      "outputs": [],
      "stateMutability": "nonpayable",
      "type": "function"
    },
    {
      "inputs": [],
      "name": "swapRouter",
      "outputs": [
        {
          "internalType": "contract ISwapRouter",
          "name": "",
          "type": "address"
        }
      ],
      "stateMutability": "view",
      "type": "function"
    },
    {
      "inputs": [
        {
          "internalType": "address",
          "name": "newOwner",
          "type": "address"
        }
      ],
      "name": "transferOwnership",
      "outputs": [],
      "stateMutability": "nonpayable",
      "type": "function"
    },
    {
      "inputs": [],
      "name": "uniswapFactory",
      "outputs": [
        {
          "internalType": "contract IUniswapV3Factory",
          "name": "",
          "type": "address"
        }
      ],
      "stateMutability": "view",
      "type": "function"
    },
    {
      "inputs": [
        {
          "internalType": "address",
          "name": "_assetAddress",
          "type": "address"
        }
      ],
      "name": "withdraw",
      "outputs": [],
      "stateMutability": "nonpayable",
      "type": "function"
    },
    {
      "stateMutability": "payable",
      "type": "receive"
    }
  ],
  "bytecode": "0x6101406040523480156200001257600080fd5b5060405162004731380380620047318339810160408190526200003591620001f3565b83806001600160a01b03166080816001600160a01b031660601b81525050806001600160a01b0316630261bf8b6040518163ffffffff1660e01b815260040160206040518083038186803b1580156200008d57600080fd5b505afa158015620000a2573d6000803e3d6000fd5b505050506040513d6020811015620000b957600080fd5b505160601b6001600160601b03191660a052506000620000d862000186565b600080546001600160a01b0319166001600160a01b0383169081178255604051929350917f8be0079c531659141344cd1fd0a4f28419497f9722a3daafe3b4186f6b6457e0908290a350606083811b6001600160601b031990811660e05283821b8116610100529082901b16610120526000805461ffff60a01b191661027160a31b1790556200017860001960046200018a602090811b62000d2c17901c565b60c052506200027392505050565b3390565b6000808211620001e1576040805162461bcd60e51b815260206004820152601a60248201527f536166654d6174683a206469766973696f6e206279207a65726f000000000000604482015290519081900360640190fd5b818381620001eb57fe5b049392505050565b6000806000806080858703121562000209578384fd5b845162000216816200025a565b602086015190945062000229816200025a565b60408601519093506200023c816200025a565b60608601519092506200024f816200025a565b939692955090935050565b6001600160a01b03811681146200027057600080fd5b50565b60805160601c60a05160601c60c05160e05160601c6101005160601c6101205160601c6143f26200033f600039806107365280612f135280612fb9528061305f5250806105505280611baa52508061098f528061221852806122a652806123145280612409528061256052806125de5280612acc5280612b6e5280612ba75280612c3f525080610d0a52806122c752806123d5528061242a5280612518525080610774528061096b52806115ac52806118e05280611cf35280611fe652508061038b52506143f26000f3fe6080604052600436106101635760003560e01c8063a0ca868e116100c0578063c54e44eb11610074578063f2fde38b11610059578063f2fde38b14610327578063f8ff08c914610347578063fceb0f3b146103675761016a565b8063c54e44eb146102fd578063e0bab4c4146103125761016a565b8063a301dfd1116100a5578063a301dfd1146102be578063b4dcfc77146102d3578063c31c9c07146102e85761016a565b8063a0ca868e14610287578063a1b4d011146102a95761016a565b8063837e0ac6116101175780638bdb2afa116100fc5780638bdb2afa146102305780638da5cb5b14610245578063920f5c841461025a5761016a565b8063837e0ac6146101fb57806389a302711461021b5761016a565b806351cff8d91161014857806351cff8d9146101af5780635fe3b567146101d1578063715018a6146101e65761016a565b80630542975c1461016f5780634aa4a4fc1461019a5761016a565b3661016a57005b600080fd5b34801561017b57600080fd5b50610184610389565b6040516101919190613c30565b60405180910390f35b3480156101a657600080fd5b506101846103ad565b3480156101bb57600080fd5b506101cf6101ca36600461381c565b6103c5565b005b3480156101dd57600080fd5b5061018461054e565b3480156101f257600080fd5b506101cf610572565b34801561020757600080fd5b506101cf610216366004613a8d565b61063d565b34801561022757600080fd5b5061018461071c565b34801561023c57600080fd5b50610184610734565b34801561025157600080fd5b50610184610758565b34801561026657600080fd5b5061027a610275366004613949565b610767565b6040516101919190613df5565b34801561029357600080fd5b5061029c610928565b6040516101919190614039565b3480156102b557600080fd5b50610184610939565b3480156102ca57600080fd5b50610184610951565b3480156102df57600080fd5b50610184610969565b3480156102f457600080fd5b5061018461098d565b34801561030957600080fd5b506101846109b1565b34801561031e57600080fd5b506101846109c9565b34801561033357600080fd5b506101cf61034236600461381c565b6109e1565b34801561035357600080fd5b506101cf6103623660046138d3565b610b02565b34801561037357600080fd5b5061037c610d08565b6040516101919190614048565b7f000000000000000000000000000000000000000000000000000000000000000081565b73c02aaa39b223fe8d0a0e5c4f27ead9083c756cc281565b6103cd610d95565b6001600160a01b03166103de610758565b6001600160a01b031614610439576040805162461bcd60e51b815260206004820181905260248201527f4f776e61626c653a2063616c6c6572206973206e6f7420746865206f776e6572604482015290519081900360640190fd5b60006001600160a01b038216610482575060405130803191339083156108fc029084906000818181858888f1935050505015801561047b573d6000803e3d6000fd5b505061050a565b604080516370a0823160e01b815230600482015290516001600160a01b038416916370a08231916024808301926020929190829003018186803b1580156104c857600080fd5b505afa1580156104dc573d6000803e3d6000fd5b505050506040513d60208110156104f257600080fd5b5051905061050a6001600160a01b0383163383610d99565b6040805182815290516001600160a01b0384169133917f9207361cc2a04b9c7a06691df1eb87c6a63957ae88bf01d0d18c81e3d12720999181900360200190a35050565b7f000000000000000000000000000000000000000000000000000000000000000081565b61057a610d95565b6001600160a01b031661058b610758565b6001600160a01b0316146105e6576040805162461bcd60e51b815260206004820181905260248201527f4f776e61626c653a2063616c6c6572206973206e6f7420746865206f776e6572604482015290519081900360640190fd5b600080546040516001600160a01b03909116907f8be0079c531659141344cd1fd0a4f28419497f9722a3daafe3b4186f6b6457e0908390a36000805473ffffffffffffffffffffffffffffffffffffffff19169055565b610645610d95565b6001600160a01b0316610656610758565b6001600160a01b0316146106b1576040805162461bcd60e51b815260206004820181905260248201527f4f776e61626c653a2063616c6c6572206973206e6f7420746865206f776e6572604482015290519081900360640190fd5b6127108161ffff1611156106e05760405162461bcd60e51b81526004016106d790613eba565b60405180910390fd5b6000805461ffff909216600160a01b027fffffffffffffffffffff0000ffffffffffffffffffffffffffffffffffffffff909216919091179055565b73a0b86991c6218b36c1d19d4a2e9eb0ce3606eb4881565b7f000000000000000000000000000000000000000000000000000000000000000081565b6000546001600160a01b031690565b6000336001600160a01b037f000000000000000000000000000000000000000000000000000000000000000016146107b15760405162461bcd60e51b81526004016106d790613ff3565b6001600160a01b03841630146107d95760405162461bcd60e51b81526004016106d790613fbc565b6108186040518060400160405280600f81526020017f496e69746961746f72206973202573000000000000000000000000000000000081525085610e09565b610820613763565b61085f84848080601f016020809104026020016040519081016040528093929190818152602001838380828437600092019190915250610edd92505050565b905060018a1480156108ac575073c02aaa39b223fe8d0a0e5c4f27ead9083c756cc28b8b60008161088c57fe5b90506020020160208101906108a1919061381c565b6001600160a01b0316145b6108c85760405162461bcd60e51b81526004016106d790613ef1565b610917816000015182602001518360400151846060015185608001518660a001518f8f60008181106108f657fe5b905060200201358e8e600081811061090a57fe5b905060200201358d610f75565b5060019a9950505050505050505050565b600054600160a01b900461ffff1681565b734ddc2d193948926d02f9b1fe9e1daa0718270ed581565b73eeeeeeeeeeeeeeeeeeeeeeeeeeeeeeeeeeeeeeee81565b7f000000000000000000000000000000000000000000000000000000000000000081565b7f000000000000000000000000000000000000000000000000000000000000000081565b73dac17f958d2ee523a2206206994597c13d831ec781565b736b175474e89094c44da98b954eedeac495271d0f81565b6109e9610d95565b6001600160a01b03166109fa610758565b6001600160a01b031614610a55576040805162461bcd60e51b815260206004820181905260248201527f4f776e61626c653a2063616c6c6572206973206e6f7420746865206f776e6572604482015290519081900360640190fd5b6001600160a01b038116610a9a5760405162461bcd60e51b81526004018080602001828103825260268152602001806141326026913960400191505060405180910390fd5b600080546040516001600160a01b03808516939216917f8be0079c531659141344cd1fd0a4f28419497f9722a3daafe3b4186f6b6457e091a36000805473ffffffffffffffffffffffffffffffffffffffff19166001600160a01b0392909216919091179055565b610b0a610d95565b6001600160a01b0316610b1b610758565b6001600160a01b031614610b76576040805162461bcd60e51b815260206004820181905260248201527f4f776e61626c653a2063616c6c6572206973206e6f7420746865206f776e6572604482015290519081900360640190fd5b6000816001811115610b8457fe5b9050610b908682611b8f565b610be06040518060800160405280605381526020016140df60539139610bc973c02aaa39b223fe8d0a0e5c4f27ead9083c756cc2611da6565b610bd28a611da6565b610bdb89611da6565b611e25565b610be8613763565b6040518060c001604052808a6001600160a01b03168152602001896001600160a01b03168152602001886001600160a01b03168152602001876001600160a01b03168152602001868152602001836001811115610c4157fe5b905290506060610c5082611f02565b604080516001808252818301909252919250606091906020808301908036833701905050905073c02aaa39b223fe8d0a0e5c4f27ead9083c756cc281600081518110610c9857fe5b6001600160a01b0392909216602092830291909101909101526040805160018082528183019092526060918160200160208202803683370190505090508681600081518110610ce357fe5b602002602001018181525050610cfa828285611f4d565b505050505050505050505050565b7f000000000000000000000000000000000000000000000000000000000000000081565b6000808211610d82576040805162461bcd60e51b815260206004820152601a60248201527f536166654d6174683a206469766973696f6e206279207a65726f000000000000604482015290519081900360640190fd5b818381610d8b57fe5b0490505b92915050565b3390565b604080516001600160a01b038416602482015260448082018490528251808303909101815260649091019091526020810180516001600160e01b03167fa9059cbb00000000000000000000000000000000000000000000000000000000179052610e04908490612062565b505050565b610ed982826040516024018080602001836001600160a01b03168152602001828103825284818151815260200191508051906020019080838360005b83811015610e5d578181015183820152602001610e45565b50505050905090810190601f168015610e8a5780820380516001836020036101000a031916815260200191505b5060408051601f198184030181529190526020810180516001600160e01b03167f319af33300000000000000000000000000000000000000000000000000000000179052935061211392505050565b5050565b610ee5613763565b60008060008060008087806020019051810190610f029190613854565b9550955095509550955095506040518060c00160405280876001600160a01b03168152602001866001600160a01b03168152602001856001600160a01b03168152602001846001600160a01b03168152602001838152602001826001811115610f6757fe5b905298975050505050505050565b610fc060405180608001604052806053815260200161436a60539139610fae73c02aaa39b223fe8d0a0e5c4f27ead9083c756cc2611da6565b610fb78b611da6565b610bdb8a611da6565b6000610fe984610fe373c02aaa39b223fe8d0a0e5c4f27ead9083c756cc2611da6565b90612134565b90506001600160a01b03891673c02aaa39b223fe8d0a0e5c4f27ead9083c756cc2146110305761102e8673c02aaa39b223fe8d0a0e5c4f27ead9083c756cc28b612191565b505b61107b6040518060800160405280605381526020016140676053913961106973c02aaa39b223fe8d0a0e5c4f27ead9083c756cc2611da6565b6110728c611da6565b610bdb8b611da6565b604051636eb1769f60e11b81526000906001600160a01b038b169063dd62ed3e906110ac9030908f90600401613c44565b60206040518083038186803b1580156110c457600080fd5b505afa1580156110d8573d6000803e3d6000fd5b505050506040513d601f19601f820116820180604052508101906110fc9190613aaf565b90508061111c576111176001600160a01b038b168c896126ae565b611130565b6111306001600160a01b038b168c896127c1565b61116e6040518060400160405280600e81526020017f4c69717569646174696f6e2e2e2e0000000000000000000000000000000000008152506128ac565b600086600181111561117c57fe5b1415611569576040517ff5e3c4620000000000000000000000000000000000000000000000000000000081526000906001600160a01b038d169063f5e3c462906111ce908d908c908e90600401613dd2565b602060405180830381600087803b1580156111e857600080fd5b505af11580156111fc573d6000803e3d6000fd5b505050506040513d601f19601f820116820180604052508101906112209190613aaf565b90506112616040518060400160405280600e81526020017f5b282129204c495120444154415d0000000000000000000000000000000000008152508261296e565b801561127f5760405162461bcd60e51b81526004016106d790613e00565b6040516370a0823160e01b81526001600160a01b038a169063db006a759082906370a08231906112b3903090600401613c30565b60206040518083038186803b1580156112cb57600080fd5b505afa1580156112df573d6000803e3d6000fd5b505050506040513d601f19601f820116820180604052508101906113039190613aaf565b6040518263ffffffff1660e01b815260040161131f9190614048565b602060405180830381600087803b15801561133957600080fd5b505af115801561134d573d6000803e3d6000fd5b505050506040513d601f19601f820116820180604052508101906113719190613aaf565b506001600160a01b038916734ddc2d193948926d02f9b1fe9e1daa0718270ed514156113be576113b960405180606001604052806026815260200161429f602691394761296e565b6114cd565b6114cd604051806060016040528060348152602001614223603491398a6001600160a01b0316636f307dc36040518163ffffffff1660e01b8152600401602060405180830381600087803b15801561141557600080fd5b505af1158015611429573d6000803e3d6000fd5b505050506040513d601f19601f8201168201806040525081019061144d9190613838565b6001600160a01b03166370a08231306040518263ffffffff1660e01b81526004016114789190613c30565b60206040518083038186803b15801561149057600080fd5b505afa1580156114a4573d6000803e3d6000fd5b505050506040513d601f19601f820116820180604052508101906114c89190613aaf565b61296e565b6001600160a01b038916734ddc2d193948926d02f9b1fe9e1daa0718270ed51461156757886001600160a01b0316636f307dc36040518163ffffffff1660e01b8152600401602060405180830381600087803b15801561152c57600080fd5b505af1158015611540573d6000803e3d6000fd5b505050506040513d601f19601f820116820180604052508101906115649190613838565b98505b505b600186600181111561157757fe5b141561161c576040517ea718a90000000000000000000000000000000000000000000000000000000081526001600160a01b037f0000000000000000000000000000000000000000000000000000000000000000169062a718a9906115e9908b908e908e908d90600090600401613ca8565b600060405180830381600087803b15801561160357600080fd5b505af1158015611617573d6000803e3d6000fd5b505050505b61166760405180608001604052806053815260200161417e6053913961165573c02aaa39b223fe8d0a0e5c4f27ead9083c756cc2611da6565b61165e8d611da6565b610bdb8c611da6565b60006001600160a01b038916734ddc2d193948926d02f9b1fe9e1daa0718270ed514806116b057506001600160a01b03891673eeeeeeeeeeeeeeeeeeeeeeeeeeeeeeeeeeeeeeee145b156116bc57504761173b565b6040516370a0823160e01b81526001600160a01b038a16906370a08231906116e8903090600401613c30565b60206040518083038186803b15801561170057600080fd5b505afa158015611714573d6000803e3d6000fd5b505050506040513d601f19601f820116820180604052508101906117389190613aaf565b90505b6001600160a01b03891673c02aaa39b223fe8d0a0e5c4f27ead9083c756cc2146117e15760006001600160a01b038a16734ddc2d193948926d02f9b1fe9e1daa0718270ed514806117a857506001600160a01b038a1673eeeeeeeeeeeeeeeeeeeeeeeeeeeeeeeeeeeeeeee145b156117bd576117b647612a35565b90506117df565b6117dc828b73c02aaa39b223fe8d0a0e5c4f27ead9083c756cc2612aa5565b90505b505b61182c6040518060800160405280605281526020016141d16052913961181a73c02aaa39b223fe8d0a0e5c4f27ead9083c756cc2611da6565b6118238e611da6565b610bdb8d611da6565b6040805180820190915260208082527f466f722072657061792072657175697265643a2025732c20686176653a202573908201526118909061186e8888612ce8565b61188b73c02aaa39b223fe8d0a0e5c4f27ead9083c756cc2611da6565b612d42565b600061189b8c611da6565b905080156118c4576118c2818d73c02aaa39b223fe8d0a0e5c4f27ead9083c756cc2612aa5565b505b73c02aaa39b223fe8d0a0e5c4f27ead9083c756cc263095ea7b37f00000000000000000000000000000000000000000000000000000000000000006119098a8a612ce8565b6040518363ffffffff1660e01b8152600401611926929190613db9565b602060405180830381600087803b15801561194057600080fd5b505af1158015611954573d6000803e3d6000fd5b505050506040513d601f19601f820116820180604052508101906119789190613a46565b5060006119a56119888989612ce8565b610fe373c02aaa39b223fe8d0a0e5c4f27ead9083c756cc2611da6565b90508481116119c65760405162461bcd60e51b81526004016106d790613f28565b611a056040518060400160405280601a81526020017f526573756c74696e6720574554482062616c616e63653a2025730000000000008152508261296e565b60008054611a369061271090611a3090600160a01b900461ffff16611a2a868b612134565b90612e11565b90610d2c565b9050611a4181612e6a565b50604051419082156108fc029083906000818181858888f19350505050158015611a6f573d6000803e3d6000fd5b5073c02aaa39b223fe8d0a0e5c4f27ead9083c756cc26001600160a01b031663a9059cbb306001600160a01b0316638da5cb5b6040518163ffffffff1660e01b815260040160206040518083038186803b158015611acc57600080fd5b505afa158015611ae0573d6000803e3d6000fd5b505050506040513d601f19601f82011682018060405250810190611b049190613838565b611b0e8585612134565b6040518363ffffffff1660e01b8152600401611b2b929190613db9565b602060405180830381600087803b158015611b4557600080fd5b505af1158015611b59573d6000803e3d6000fd5b505050506040513d601f19601f82011682018060405250810190611b7d9190613a46565b50505050505050505050505050505050565b6000816001811115611b9d57fe5b1415611cac5760008060007f00000000000000000000000000000000000000000000000000000000000000006001600160a01b0316635ec88c79866040518263ffffffff1660e01b8152600401611bf49190613c30565b60606040518083038186803b158015611c0c57600080fd5b505afa158015611c20573d6000803e3d6000fd5b505050506040513d601f19601f82011682018060405250810190611c449190613ac7565b925092509250611c6d604051806060016040528060278152602001614278602791398383612d42565b8215611c8b5760405162461bcd60e51b81526004016106d790613e5d565b80611ca85760405162461bcd60e51b81526004016106d790613f5f565b5050505b6001816001811115611cba57fe5b1415610ed9576040517fbf92857c0000000000000000000000000000000000000000000000000000000081526000906001600160a01b037f0000000000000000000000000000000000000000000000000000000000000000169063bf92857c90611d28908690600401613c30565b60c06040518083038186803b158015611d4057600080fd5b505afa158015611d54573d6000803e3d6000fd5b505050506040513d601f19601f82011682018060405250810190611d789190613af4565b95505050505050670de0b6b3a76400008110610e045760405162461bcd60e51b81526004016106d790613f5f565b6040516370a0823160e01b81526000906001600160a01b038316906370a0823190611dd5903090600401613c30565b60206040518083038186803b158015611ded57600080fd5b505afa158015611e01573d6000803e3d6000fd5b505050506040513d601f19601f82011682018060405250810190610d8f9190613aaf565b611efc848484846040516024018080602001858152602001848152602001838152602001828103825286818151815260200191508051906020019080838360005b83811015611e7e578181015183820152602001611e66565b50505050905090810190601f168015611eab5780820380516001836020036101000a031916815260200191505b5060408051601f198184030181529190526020810180516001600160e01b03167f08ee5666000000000000000000000000000000000000000000000000000000001790529550612113945050505050565b50505050565b6060816000015182602001518360400151846060015185608001518660a00151604051602001611f3796959493929190613c5e565b6040516020818303038152906040529050919050565b82513090819060009060609067ffffffffffffffff81118015611f6f57600080fd5b50604051908082528060200260200182016040528015611f99578160200160208202803683370190505b509050600081600081518110611fab57fe5b60209081029190910101526040517fab9c4b5d0000000000000000000000000000000000000000000000000000000081526001600160a01b037f0000000000000000000000000000000000000000000000000000000000000000169063ab9c4b5d906120279087908b908b9087908a908d908b90600401613d04565b600060405180830381600087803b15801561204157600080fd5b505af1158015612055573d6000803e3d6000fd5b5050505050505050505050565b60606120b7826040518060400160405280602081526020017f5361666545524332303a206c6f772d6c6576656c2063616c6c206661696c6564815250856001600160a01b0316612ef59092919063ffffffff16565b805190915015610e04578080602001905160208110156120d657600080fd5b5051610e045760405162461bcd60e51b815260040180806020018281038252602a81526020018061430a602a913960400191505060405180910390fd5b80516a636f6e736f6c652e6c6f67602083016000808483855afa5050505050565b60008282111561218b576040805162461bcd60e51b815260206004820152601e60248201527f536166654d6174683a207375627472616374696f6e206f766572666c6f770000604482015290519081900360640190fd5b50900390565b60008060006121a08585612f0c565b915091506121cd6040518060600160405280602581526020016140ba602591398262ffffff168787613474565b6121ef6040518060600160405280602181526020016142e9602191398761296e565b604051636eb1769f60e11b81526000906001600160a01b0387169063dd62ed3e906122409030907f000000000000000000000000000000000000000000000000000000000000000090600401613c44565b60206040518083038186803b15801561225857600080fd5b505afa15801561226c573d6000803e3d6000fd5b505050506040513d601f19601f820116820180604052508101906122909190613aaf565b9050806123d3576122eb6001600160a01b0387167f00000000000000000000000000000000000000000000000000000000000000007f00000000000000000000000000000000000000000000000000000000000000006126ae565b604051636eb1769f60e11b81526000906001600160a01b0388169063dd62ed3e9061233c9030907f000000000000000000000000000000000000000000000000000000000000000090600401613c44565b60206040518083038186803b15801561235457600080fd5b505afa158015612368573d6000803e3d6000fd5b505050506040513d601f19601f8201168201806040525081019061238c9190613aaf565b90506123cd6040518060400160405280600b81526020017f417070726f7665642025730000000000000000000000000000000000000000008152508261296e565b5061244e565b7f0000000000000000000000000000000000000000000000000000000000000000811161244e5761244e6001600160a01b0387167f00000000000000000000000000000000000000000000000000000000000000007f00000000000000000000000000000000000000000000000000000000000000006127c1565b6040516370a0823160e01b81526000906001600160a01b038716906370a082319061247d908790600401613c30565b60206040518083038186803b15801561249557600080fd5b505afa1580156124a9573d6000803e3d6000fd5b505050506040513d601f19601f820116820180604052508101906124cd9190613aaf565b90506124d7613796565b5060408051610100810182526001600160a01b03808a16808352908916602083015262ffffff86168284015230606083015242608083015260a082018b90527f000000000000000000000000000000000000000000000000000000000000000060c0830152600060e0830181905292516370a0823160e01b81529192916370a0823190612588907f000000000000000000000000000000000000000000000000000000000000000090600401613c30565b60206040518083038186803b1580156125a057600080fd5b505afa1580156125b4573d6000803e3d6000fd5b505050506040513d601f19601f820116820180604052508101906125d89190613aaf565b905060007f00000000000000000000000000000000000000000000000000000000000000006001600160a01b031663db3e2198846040518263ffffffff1660e01b8152600401612628919061402a565b602060405180830381600087803b15801561264257600080fd5b505af1158015612656573d6000803e3d6000fd5b505050506040513d601f19601f8201168201806040525081019061267a9190613aaf565b905061269e6040518060600160405280602481526020016142c5602491398261296e565b96505050505050505b9392505050565b801580612734575060408051636eb1769f60e11b81523060048201526001600160a01b03848116602483015291519185169163dd62ed3e91604480820192602092909190829003018186803b15801561270657600080fd5b505afa15801561271a573d6000803e3d6000fd5b505050506040513d602081101561273057600080fd5b5051155b61276f5760405162461bcd60e51b81526004018080602001828103825260368152602001806143346036913960400191505060405180910390fd5b604080516001600160a01b038416602482015260448082018490528251808303909101815260649091019091526020810180516001600160e01b031663095ea7b360e01b179052610e04908490612062565b600061285782856001600160a01b031663dd62ed3e30876040518363ffffffff1660e01b815260040180836001600160a01b03168152602001826001600160a01b031681526020019250505060206040518083038186803b15801561282557600080fd5b505afa158015612839573d6000803e3d6000fd5b505050506040513d602081101561284f57600080fd5b505190612ce8565b604080516001600160a01b038616602482015260448082018490528251808303909101815260649091019091526020810180516001600160e01b031663095ea7b360e01b179052909150611efc908590612062565b61296b816040516024018080602001828103825283818151815260200191508051906020019080838360005b838110156128f05781810151838201526020016128d8565b50505050905090810190601f16801561291d5780820380516001836020036101000a031916815260200191505b5060408051601f198184030181529190526020810180516001600160e01b03167f41304fac000000000000000000000000000000000000000000000000000000001790529250612113915050565b50565b610ed982826040516024018080602001838152602001828103825284818151815260200191508051906020019080838360005b838110156129b95781810151838201526020016129a1565b50505050905090810190601f1680156129e65780820380516001836020036101000a031916815260200191505b5060408051601f198184030181529190526020810180516001600160e01b03167f9710a9d000000000000000000000000000000000000000000000000000000000179052935061211392505050565b600073c02aaa39b223fe8d0a0e5c4f27ead9083c756cc26001600160a01b031663d0e30db0836040518263ffffffff1660e01b81526004016000604051808303818588803b158015612a8657600080fd5b505af1158015612a9a573d6000803e3d6000fd5b509495945050505050565b6000806000612ab48585612f0c565b915091506000856001600160a01b031663dd62ed3e307f00000000000000000000000000000000000000000000000000000000000000006040518363ffffffff1660e01b8152600401612b08929190613c44565b60206040518083038186803b158015612b2057600080fd5b505afa158015612b34573d6000803e3d6000fd5b505050506040513d601f19601f82011682018060405250810190612b589190613aaf565b905080612b9857612b936001600160a01b0387167f0000000000000000000000000000000000000000000000000000000000000000896126ae565b612bcc565b612bcc6001600160a01b0387167f0000000000000000000000000000000000000000000000000000000000000000896127c1565b612bd4613796565b604051806101000160405280886001600160a01b03168152602001876001600160a01b031681526020018462ffffff168152602001306001600160a01b031681526020014281526020018981526020016000815260200160006001600160a01b0316815250905060007f00000000000000000000000000000000000000000000000000000000000000006001600160a01b031663414bf389836040518263ffffffff1660e01b8152600401612c89919061402a565b602060405180830381600087803b158015612ca357600080fd5b505af1158015612cb7573d6000803e3d6000fd5b505050506040513d601f19601f82011682018060405250810190612cdb9190613aaf565b9998505050505050505050565b6000828201838110156126a7576040805162461bcd60e51b815260206004820152601b60248201527f536166654d6174683a206164646974696f6e206f766572666c6f770000000000604482015290519081900360640190fd5b610e048383836040516024018080602001848152602001838152602001828103825285818151815260200191508051906020019080838360005b83811015612d94578181015183820152602001612d7c565b50505050905090810190601f168015612dc15780820380516001836020036101000a031916815260200191505b5060408051601f198184030181529190526020810180516001600160e01b03167f969cdd030000000000000000000000000000000000000000000000000000000017905294506121139350505050565b600082612e2057506000610d8f565b82820282848281612e2d57fe5b04146126a75760405162461bcd60e51b81526004018080602001828103825260218152602001806142576021913960400191505060405180910390fd5b6040517f2e1a7d4d00000000000000000000000000000000000000000000000000000000815260009073c02aaa39b223fe8d0a0e5c4f27ead9083c756cc290632e1a7d4d90612ebd908590600401614048565b600060405180830381600087803b158015612ed757600080fd5b505af1158015612eeb573d6000803e3d6000fd5b5093949350505050565b6060612f04848460008561355d565b949350505050565b60008060007f00000000000000000000000000000000000000000000000000000000000000006001600160a01b0316631698ee8286866101f46040518463ffffffff1660e01b8152600401612f6393929190613cdc565b60206040518083038186803b158015612f7b57600080fd5b505afa158015612f8f573d6000803e3d6000fd5b505050506040513d601f19601f82011682018060405250810190612fb39190613838565b905060007f00000000000000000000000000000000000000000000000000000000000000006001600160a01b0316631698ee828787610bb86040518463ffffffff1660e01b815260040161300993929190613cdc565b60206040518083038186803b15801561302157600080fd5b505afa158015613035573d6000803e3d6000fd5b505050506040513d601f19601f820116820180604052508101906130599190613838565b905060007f00000000000000000000000000000000000000000000000000000000000000006001600160a01b0316631698ee8288886127106040518463ffffffff1660e01b81526004016130af93929190613cdc565b60206040518083038186803b1580156130c757600080fd5b505afa1580156130db573d6000803e3d6000fd5b505050506040513d601f19601f820116820180604052508101906130ff9190613838565b905060006001600160a01b038416613118576000613189565b836001600160a01b0316631a6865026040518163ffffffff1660e01b815260040160206040518083038186803b15801561315157600080fd5b505afa158015613165573d6000803e3d6000fd5b505050506040513d601f19601f820116820180604052508101906131899190613a66565b905060006001600160a01b0384166131a2576000613213565b836001600160a01b0316631a6865026040518163ffffffff1660e01b815260040160206040518083038186803b1580156131db57600080fd5b505afa1580156131ef573d6000803e3d6000fd5b505050506040513d601f19601f820116820180604052508101906132139190613a66565b905060006001600160a01b03841661322c57600061329d565b836001600160a01b0316631a6865026040518163ffffffff1660e01b815260040160206040518083038186803b15801561326557600080fd5b505afa158015613279573d6000803e3d6000fd5b505050506040513d601f19601f8201168201806040525081019061329d9190613a66565b604080518082018252600b81527f506f6f6c4c6f773a202573000000000000000000000000000000000000000000602082015290516370a0823160e01b8152919250613302916001600160a01b038c16906370a0823190611478908b90600401613c30565b604080518082018252600b81527f506f6f6c4d65643a202573000000000000000000000000000000000000000000602082015290516370a0823160e01b815261336591906001600160a01b038c16906370a0823190611478908a90600401613c30565b604080518082018252600b81527f506f6f6c4869673a202573000000000000000000000000000000000000000000602082015290516370a0823160e01b81526133c891906001600160a01b038c16906370a0823190611478908990600401613c30565b816001600160801b0316836001600160801b0316101580156133fc5750806001600160801b0316836001600160801b031610155b1561341457856101f49750975050505050505061346d565b826001600160801b0316826001600160801b03161180156134475750806001600160801b0316826001600160801b031610155b1561345f5784610bb89750975050505050505061346d565b509195506127109450505050505b9250929050565b611efc848484846040516024018080602001858152602001846001600160a01b03168152602001836001600160a01b03168152602001828103825286818151815260200191508051906020019080838360005b838110156134df5781810151838201526020016134c7565b50505050905090810190601f16801561350c5780820380516001836020036101000a031916815260200191505b5060408051601f198184030181529190526020810180516001600160e01b03167feac89281000000000000000000000000000000000000000000000000000000001790529550612113945050505050565b60608247101561359e5760405162461bcd60e51b81526004018080602001828103825260268152602001806141586026913960400191505060405180910390fd5b6135a7856136b9565b6135f8576040805162461bcd60e51b815260206004820152601d60248201527f416464726573733a2063616c6c20746f206e6f6e2d636f6e7472616374000000604482015290519081900360640190fd5b60006060866001600160a01b031685876040518082805190602001908083835b602083106136375780518252601f199092019160209182019101613618565b6001836020036101000a03801982511681845116808217855250505050505090500191505060006040518083038185875af1925050503d8060008114613699576040519150601f19603f3d011682016040523d82523d6000602084013e61369e565b606091505b50915091506136ae8282866136bf565b979650505050505050565b3b151590565b606083156136ce5750816126a7565b8251156136de5782518084602001fd5b8160405162461bcd60e51b81526004018080602001828103825283818151815260200191508051906020019080838360005b83811015613728578181015183820152602001613710565b50505050905090810190601f1680156137555780820380516001836020036101000a031916815260200191505b509250505060405180910390fd5b6040805160c08101825260008082526020820181905291810182905260608101829052608081018290529060a082015290565b6040805161010081018252600080825260208201819052918101829052606081018290526080810182905260a0810182905260c0810182905260e081019190915290565b60008083601f8401126137eb578182fd5b50813567ffffffffffffffff811115613802578182fd5b602083019150836020808302850101111561346d57600080fd5b60006020828403121561382d578081fd5b81356126a781614051565b600060208284031215613849578081fd5b81516126a781614051565b60008060008060008060c0878903121561386c578182fd5b865161387781614051565b602088015190965061388881614051565b604088015190955061389981614051565b60608801519094506138aa81614051565b608088015160a08901519194509250600281106138c5578182fd5b809150509295509295509295565b600080600080600080600060e0888a0312156138ed578081fd5b87356138f881614051565b9650602088013561390881614051565b9550604088013561391881614051565b9450606088013561392881614051565b9699959850939660808101359560a0820135955060c0909101359350915050565b600080600080600080600080600060a08a8c031215613966578182fd5b893567ffffffffffffffff8082111561397d578384fd5b6139898d838e016137da565b909b50995060208c01359150808211156139a1578384fd5b6139ad8d838e016137da565b909950975060408c01359150808211156139c5578384fd5b6139d18d838e016137da565b909750955060608c013591506139e682614051565b90935060808b013590808211156139fb578384fd5b818c0191508c601f830112613a0e578384fd5b813581811115613a1c578485fd5b8d6020828501011115613a2d578485fd5b6020830194508093505050509295985092959850929598565b600060208284031215613a57578081fd5b815180151581146126a7578182fd5b600060208284031215613a77578081fd5b81516001600160801b03811681146126a7578182fd5b600060208284031215613a9e578081fd5b813561ffff811681146126a7578182fd5b600060208284031215613ac0578081fd5b5051919050565b600080600060608486031215613adb578283fd5b8351925060208401519150604084015190509250925092565b60008060008060008060c08789031215613b0c578384fd5b865195506020870151945060408701519350606087015192506080870151915060a087015190509295509295509295565b6001600160a01b03169052565b6000815180845260208085019450808401835b83811015612a9a57815187529582019590820190600101613b5d565b60008151808452815b81811015613b9e57602081850181015186830182015201613b82565b81811115613baf5782602083870101525b50601f01601f19169290920160200192915050565b6001600160a01b0380825116835280602083015116602084015262ffffff60408301511660408401528060608301511660608401526080820151608084015260a082015160a084015260c082015160c08401528060e08301511660e0840152505050565b61ffff169052565b6001600160a01b0391909116815260200190565b6001600160a01b0392831681529116602082015260400190565b6001600160a01b03878116825286811660208301528581166040830152841660608201526080810183905260c0810160028310613c9757fe5b8260a0830152979650505050505050565b6001600160a01b03958616815293851660208501529190931660408301526060820192909252901515608082015260a00190565b6001600160a01b03938416815291909216602082015262ffffff909116604082015260600190565b600060e082016001600160a01b03808b168452602060e081860152828b5180855261010087019150828d019450855b81811015613d51578551851683529483019491830191600101613d33565b50508581036040870152613d65818c613b4a565b93505050508281036060840152613d7c8188613b4a565b9050613d8b6080840187613b3d565b82810360a0840152613d9d8186613b79565b915050613dad60c0830184613c28565b98975050505050505050565b6001600160a01b03929092168252602082015260400190565b6001600160a01b0393841681526020810192909252909116604082015260600190565b901515815260200190565b60208082526025908201527f436f6d706f756e64206c69717569646174696f6e3a206261642072657475726e60408201527f20636f6465000000000000000000000000000000000000000000000000000000606082015260800190565b60208082526030908201527f43616e2774206c69717569646174652120536f6d657468696e6727732077726f60408201527f6e67207769746820626f72726f77657200000000000000000000000000000000606082015260800190565b6020808252601a908201527f466565206e6f7420696e205b303b31303030305d2072616e6765000000000000604082015260600190565b60208082526013908201527f496e636f6e73697374656e7420706172616d7300000000000000000000000000604082015260600190565b6020808252600c908201527f536c697070616765203c20310000000000000000000000000000000000000000604082015260600190565b6020808252603d908201527f43616e2774206c69717569646174652120426f72726f776572206973206e6f7460408201527f2062656c6f7720636f6c6c61746572616c20726571756972656d656e74000000606082015260800190565b6020808252601f908201527f496e69746961746f72206d757374206265207468697320636f6e747261637400604082015260600190565b6020808252601b908201527f43616c6c6572206d757374206265206c656e64696e6720706f6f6c0000000000604082015260600190565b6101008101610d8f8284613bc4565b61ffff91909116815260200190565b90815260200190565b6001600160a01b038116811461296b57600080fdfe5b414654455220535741505d2020436f6e7472616374202857455448292062616c616e63653a2025732c20646562742062616c616e63653a2025732c20636f6c6c61746572616c2062616c616e63653a2025736665652025732c2073656e64546f6b656e2025732c2072656365697665546f6b656e2025735b53544152545d20202020202020436f6e7472616374202857455448292062616c616e63653a2025732c20646562742062616c616e63653a2025732c20636f6c6c61746572616c2062616c616e63653a2025734f776e61626c653a206e6577206f776e657220697320746865207a65726f2061646472657373416464726573733a20696e73756666696369656e742062616c616e636520666f722063616c6c5b4146544552204c49515d202020436f6e7472616374202857455448292062616c616e63653a2025732c20646562742062616c616e63653a2025732c20636f6c6c61746572616c2062616c616e63653a2025735b414654455220535741505d20436f6e7472616374202857455448292062616c616e63653a2025732c20646562742062616c616e63653a2025732c20636f6c6c61746572616c2062616c616e63653a2025735b434f4d504f554e445d5b41465445522052454445454d5d2049206861766520257320636f6c6c61746572616c20746f6b656e73536166654d6174683a206d756c7469706c69636174696f6e206f766572666c6f774163636f756e74206c69717569646974792069733a2025732c2073686f727466616c6c3a2025735b434f4d504f554e445d5b41465445522052454445454d5d20492068617665202573204554484920737761707065642066756e647320666f72202573206f662073656e64546f6b656e21747279696e6720746f2073776170205745544820666f7220257320746f6b656e735361666545524332303a204552433230206f7065726174696f6e20646964206e6f7420737563636565645361666545524332303a20617070726f76652066726f6d206e6f6e2d7a65726f20746f206e6f6e2d7a65726f20616c6c6f77616e63655b4245464f524520535741505d20436f6e7472616374202857455448292062616c616e63653a2025732c20646562742062616c616e63653a2025732c20636f6c6c61746572616c2062616c616e63653a202573a2646970667358221220ebbb4c2aa5706f5f654520c5ef0035789303a1dd49eb951614f221e8e91206d964736f6c63430007050033",
  "linkReferences": {},
  "deployedLinkReferences": {}
}